:020000041000EA
:1000000000B5324B212058609868022188439860DF
:10001000D860186158612E4B002199600221596106
:100020000121F02299502B49196001219960352056
:1000300000F044F80222904214D00621196600F024
:1000400034F8196E01211966002018661A6600F04E
:100050002CF8196E196E196E052000F02FF8012189
:100060000842F9D1002199601B49196000215960AB
:100070001A491B48016001219960EB211966A021F2
:10008000196600F012F800219960164914480160C1
:100090000121996001BC002800D000471248134993
:1000A000086003C880F30888084703B5996A0420EC
:1000B0000142FBD001200142F8D103BD02B5186610
:1000C0001866FFF7F2FF186E186E02BD00000240BE
:1000D000000000180000070000035F00212200005C
:1000E000F4000018222000A00001001008ED00E03C
:1000F00000000000000000000000000074B24E7A12
:1001000000200420F7010010C3010010C5010010F9
:10011000C1010010C1010010C1010010C101001097
:10012000C1010010C1010010C1010010C701001081
:10013000C1010010C1010010C9010010CB01001065
:10014000CD010010CD010010CD010010CD01001037
:10015000CD010010CD010010CD010010CD01001027
:10016000CD010010CD010010CD010010CD01001017
:10017000CD010010CD010010CD010010CD01001007
:10018000CD010010CD010010CD010010CD010010F7
:10019000CD010010CD010010CD010010CD010010E7
:1001A000CD010010CD010010CD010010CD010010D7
:1001B000CD010010CD010010CD010010CD010010C7
:1001C00000BE00BE00BE00BE00BE00BEEFF3058054
:1001D000103800BEF2EB88710406051030060510D9
:1001E0003802001090A31AE71E481F49086006C88D
:1001F00081F3088810471D480068002801D019487D
:10020000F3E70DA40ECC002902D000F012F8F9E7B4
:100210001749184A002000E001C19142FCD116495B
:100220008847164988471649884700BEFDE701C937
:1002300001C29A42FBD3704730060510E00000204F
:10024000F00A0020401005100000042000000420E7
:1002500040100510001004200010042000000000D1
:10026000704700000000000008ED00E0000000D032
:10027000F00A00208CCD00202D550010D502001072
:1002800025550010F8B5C04606480749091A8B10D5
:10029000C90FC91810B5491003D0044B002B00D06A
:1002A000984710BDF00A0020F00A0020000000006E
:1002B000054B10B5002B03D00449054800E000BFF2
:1002C000FFF7E2FF10BDC0460000000018BC002090
:1002D000BC660110F0B5DE464E4645465746E0B5D1
:1002E0008C4C0025A544012405F052FA012332224A
:1002F0000A210094019507A800F0F4F918A800F06D
:10030000BFFA0122002106A800F0B8FC824B0026AB
:100310000293824B15210193322303940093321CE4
:100320000AA800F01BFD01947D4C642319220721CB
:1003300000940EA800F0F0FE422300220621009354
:1003400002946C33019513A800F0BCFF0EA800F0D6
:1003500069FE10F077FD002800D0D1E010F00EFD0E
:10036000012200216F4B18A800F0B2FB6E496F48C4
:100370006F4B704A10F010FD071E00D097E06E48DA
:1003800005F058FA012118A800F092FB01F0A0F83E
:10039000041E00D1ABE0694B0775C362466206627A
:1003A0008761C761866201F0FDF9002800D1ABE0EA
:1003B0003025634E615D300005F0C4FA615D0129AE
:1003C00009D0300005F0BEFAFA20400002F01AFC15
:1003D000615D0129F5D1002399465A4B05979A464C
:1003E000594B9B460123984634E000F0F7FD13A8D3
:1003F00000F0A2FD0127267A53460022052118A805
:1004000000F066FB5B4601220621009618A800F06A
:100410005FFB4E4503D031004C4805F093FA38009D
:1004200003F0FEFB291C03F0BCFB011C0AA800F032
:1004300023FD07A800F0BCF961682075200001F0D9
:1004400087F9FA20800002F0DDFB3023E35C022B09
:100450004CD0B14606A800F055FC0025152809D956
:1004600003F0D9FB2E4903F09CFBE621890503F03C
:1004700098FB051C07A800F0AFF9464606402A1C69
:10048000310018A800F0CEFB291C0EA800F0FEFDDC
:1004900013A8291C00F064FD0EA8002EA5D001278A
:1004A00000F0C0FD13A800F033FD7F42A3E7284809
:1004B00005F0C0F9012713A800F08CFF0EA800F08A
:1004C000CBFE0AA800F038FC06A800F011FC18A822
:1004D00000F08AF907A800F05BF938001D4B9D4435
:1004E000F0BCBB46B246A946A046F0BD059F200021
:1004F00000F0FEFF200003F01BFC10F0DDFCDAE74B
:10050000154805F097F9D5E701212000494201F08F
:10051000D7F8ECE794FBFFFFA50E00000000484170
:100520000000C842D8660110F0660110FC66011098
:1005300030750000040040001C67011000405F445B
:1005400010680110286701103C6701104467011012
:10055000086701106C040000C0660110D0231B0660
:10056000586801230A689340184208D00B79002B81
:100570000BD1012393400849086803430B60012114
:10058000064B0020995400217047054990004358BC
:1005900001334350EDE7C046C00D0020C80F0020D6
:1005A000480F0020D0231B06586801230A68934097
:1005B00018420AD10B79002B0DD0012393405942E8
:1005C0004B41084801680B4003600121064B0020A5
:1005D0009954002170470549900043580133435016
:1005E000EBE7C046C00D0020E80F0020480F0020B8
:1005F000F0B5C64600B5040084B0082909D0042926
:1006000003D1314B1A5C002A32D104B080BCB84609
:10061000F0BD2E4B1A5C002AF7D000221A542C4B46
:100620008200D358984602F06DF9050002F088FB6D
:10063000FA2206000F00002392004046002103F03A
:1006400079FA0B000200802192197B4109068B4246
:1006500002D301221F4B5242002102911E49E400A5
:1006600064181E4928000194009102F04FF9CCE76C
:1006700000221A54164B8200D358984602F042F9D1
:10068000050002F05DFBFA2206000F000023920035
:100690004046002103F04EFA0B000200802192191F
:1006A0007B4109068B4202D301220A4B52420021B0
:1006B00002910949E4006418094928000194009155
:1006C00002F024F9A1E7C046E80F0020C80F00207F
:1006D000C80D0020FFFFFF7F480E00205D050010C1
:1006E000A5050010F0B5C64604000800904600B508
:1006F000C20006A994460D7807A90E781D49002767
:100700005050424661440B7123711B4B81005A507B
:100710001A4B1B4ACF50012313541A4A206013541A
:10072000D02283401206A7609362002E13D00022CD
:10073000012101F0D7F9144E3368002B13D02A00A1
:1007400020680C2101F0F6F9336820000133336092
:1007500080BCB846F0BD0122002101F0C3F90A4E69
:100760003368002BEBD101220C21084B206801F0EB
:100770000DFAE4E7480E0020C80D0020480F0020C5
:10078000C80F0020E80F0020C40D0020F105001064
:1007900010B5040000220C21006801F0CBF9034AD7
:1007A00020001368013B136010BDC046C40D00203B
:1007B000012203689A40074B1B6813400279002A04
:1007C00003D15A425341D8B270475A1E9341D8B20E
:1007D000FAE7C046C00D00200268024B9200D058D4
:1007E0007047C046480F00207047C046F0B54F46DE
:1007F0004646D6462123C0B586B004AC23700133EB
:10080000E37003788046637043780027A3704388C1
:100810001A4EA38016236B449A468023994603AD53
:100820004A4623782A706B702A0002233C2130004C
:100830000097013405F078FA5445F1D143465B68DE
:100840005D1C2800994603F04DFA40234146040000
:100850004A4603700831013003F07CFA2B00220075
:100860003C213000009705F05FFA200003F060FAA9
:1008700006B0E0BCBA46B146A846F0BD2805002047
:10088000F0B5D6464F464646C0B5274B8AB0036002
:100890008023264EDB00436025490700300005F029
:1008A0001BFA0321042001F003F90321052001F0C4
:1008B000FFF800220121042001F014F903AC01210A
:1008C0000520002201F00EF922001A4B23CB23C28F
:1008D00023CB23C21B8802AD138026236B449A4688
:1008E000802399460023984623784A466B704346F6
:1008F0002A703C2100932A0002233000013405F0C5
:1009000013FA5445F0D1380080220021D20008307B
:1009100003F01AFA3800FFF769FF38000AB0E0BCAC
:10092000BA46B146A846F0BD007F00072805002062
:10093000801A06008C890110F0B54E464546DE4609
:100940005746E0B51E0085B00EAB80461B78307868
:100950000C00039300286AD00727D3171F40BF1845
:10096000FF1001363500FF0178292ADC2E2800D13E
:1009700075E015F0D3FB2038C3B25D2B00D983E0BE
:100980004A4AC0001318125C597893469A788A46EE
:100990009146DA781879944659799A79DB790192F7
:1009A00002935B46E21942441372534653724B461C
:1009B00093726346D372019B10739373029B5173BE
:1009C000D3733078083424B2013500282FD02E2874
:1009D00037D0782C24DC15F0A1FB2038C3B25D2B76
:1009E00048D8324BC0001A5C1B1893465A781E79BF
:1009F00092469A7858799146DA7899799446DB79D3
:100A000001935A46E31943441A7252465A724A46AF
:100A10009A726246DA72019A1E7358739973DA7386
:100A2000083424B22E00307801350028CFD1039B42
:100A3000002B37D105B0F0BCBB46B246A946A04654
:100A4000F0BD782CEEDCE319072C29DD013B802278
:100A50004344197A52420A432E001A72E3E77B1884
:100A600007291BDD013B80224344197A52420A4385
:100A70001A72A6E700230021002000269C46994612
:100A80009A469B460193BCE70023002100209C4628
:100A900099469B469A460293019382E70733E2E721
:100AA0000733D4E74046FFF7A1FEC3E79486011061
:100AB000802270B5D2000D0004000021083003F040
:100AC00043F9002D00D170BD2000FFF78FFEFAE73B
:100AD00008B4F0B557464E464546DE46E0B58AB006
:100AE00080460C009146139F072900D98EE0C8016B
:100AF000083080220021404403F026F905AEE300CF
:100B00001BB2112200213000039303F01DF914AB36
:100B100004933B780024002B27D03E4A029209E040
:100B2000621C3355102C20D014003D006B786F1CD4
:100B3000002B1AD0252BF3D17A787D1C252A5FD083
:100B4000633AD2B2102AF1D8029B92009B589F467A
:100B50001121049B091B1A1D049230191B682E4A8F
:100B600004F088FC2418112CE0D14B46002100939E
:100B700040463300039AFFF7DFFE0AB0F0BCBB46E5
:100B8000B246A946A046F0BC08BC01B01847049B79
:100B90001A1D1B6804923355621C102CE5D01400FA
:100BA000C4E7049B0B211A1D04921A6802AB9C46F1
:100BB000121B6144135D002BB8D001340B55112C6E
:100BC000F8D1D2E70722049B144F073393431A004E
:100BD00018685968083204921122121B9346321980
:100BE000924602F033FF03F043F83A00009001917F
:100BF0005946504604F03EFC2418112C96D1B4E717
:100C0000621C3355102CB0D014008FE7044804F058
:100C100011FEB2E750860110706701107467011071
:100C20005467011070B5161C802204000D0082B0BC
:100C30000021D200083003F087F8200000220021B4
:100C40000B4BFFF745FF002220000A4B00950121C6
:100C5000FFF73EFF301C03F00BF8074D00900191A9
:100C60002B00012202212000FFF732FF02B070BDED
:100C70007C6701108C6701109467011070B5040047
:100C80000160032924D8002A16D1022927D003297C
:100C90001AD0802200291FD01B251205D0231B0645
:100CA000002128009A62002200F01CFF0021280089
:100CB00001F006F8200070BD05F040F82168022917
:100CC0000DD0E6D90329F5D10222074B1A60F1E7CE
:100CD000064804F037FEEDE71A25D204DEE780224D
:100CE0001C255205DAE7C04600E00440A067011069
:100CF0000368032B02D10222014B1A607047C046E1
:100D000000F00440094A036811681B034B40E021CE
:100D1000C9010B4006490B600421064B1960FC31E8
:100D200013680B42FCD0506880B2704700C004408A
:100D300000D0044000E00440026893009B18054A7C
:100D40009B009A18116801220A4003498C466344AB
:100D50001A6070470000054000100540F0B5DE46FF
:100D6000574645464E46E0B583B01F000CAB1B8886
:100D700004009A460FAB1B78101C0E000D990193CE
:100D800002F00FFF051C0E9802F04AFF011C281C00
:100D900002F0F0FE02F066FF042185B266603000CA
:100DA00000F086FE636898461F2B52D81E07760F08
:100DB00053462660DBB25046994602F02CFF83462C
:100DC000484602F02DFF011C584602F0D0FE832158
:100DD000C90502F0E6FE02F045FF4B46C0B21B011A
:100DE0001843B3009E191E4BB6009B46B3445B46A6
:100DF0005146586079431B4802F0FAFA5B46424676
:100E0000013880B21861184BF318D20725D5174A5C
:100E10002D041968200069400A40802149018C4650
:100E200063441A600E4BF3181A68019B53401A0072
:100E3000012313400E4A9446664433600D9BA36021
:100E40000E9BE36003B0F0BCBB46B246A946A04689
:100E5000F0BD5E07B60F0836AAE7064AD9E7C046D6
:100E600000000540405973070C0005400000FFFFDB
:100E700000100540FFFF000070B50D1C06001F4963
:100E8000281C02F0C3FE00282DD11D49281C02F0A9
:100E9000B7FE00282FD1B168281C02F082FE051C85
:100EA000F06802F0BDFE011C281C02F063FE02F097
:100EB000D9FE746880B263081F2C18D807221A4024
:100EC00093009B180F4A9B0094466344E4070CD59B
:100ED0000D4A0004196841400A40802149018C46AE
:100EE00063441A6070BD054DD5E7084AF2E7032256
:100EF0001A400832E4E7024DCDE7C0460000C84280
:100F00000000C8C20C0005400000FFFFFFFF00000A
:100F10000123802110B50372C068064A000249020D
:100F200053680B42FCD110610021322001F056FEC3
:100F300010BDC0460000205000238022074910B594
:100F4000520203724B68180010401342FAD1086134
:100F50003220002101F042FE10BDC04600002050AA
:100F600070B506000C1C0161407A02F054FE211C91
:100F700002F017FE174902F000FE02F073FE0502B0
:100F8000B07A02F048FE211C02F00BFE114902F07B
:100F9000F4FD02F067FE00040543F07A02F03BFE28
:100FA000211C02F0FEFD0B4902F0E7FD02F05AFEA3
:100FB000337A2843F060002B07D08021064A0002D4
:100FC000490253680B42FCD110613220002101F02C
:100FD00005FE70BD0000C8420000205041684A086C
:100FE0001F2915D8072313409A00D2180A4B9200E4
:100FF000D01801230B400949013B8C46DB030168F3
:10100000DB0B63440B4006498C4662441360704717
:10101000032313400833E7E70C0005400000FFFFFF
:101020000C10054010B581684468006902F0B9FDF4
:1010300002F018FE630880B21F2C14D807221A4051
:1010400093009B180E4A9B0094466344E40715D511
:101050000C4A0004196841400A40802149018C462D
:1010600063441A6010BD03221A40083293009B1893
:10107000034A9B0094466344E407E9D4024AE9E743
:101080000C0005400000FFFFFFFF000070B50D1CC5
:1010900006001D49281C02F0B9FD002827D10021B7
:1010A000281C02F0ADFD2B1C002829D1B36031694A
:1010B000281C02F076FD02F0D5FD746880B263084A
:1010C0001F2C19D807221A4093009B180F4A9B0027
:1010D00094466344E4070DD50D4A00041968414065
:1010E0000A40802149018C4663441A6070BD064B5A
:1010F0001D1CDBE7074AF1E703221A400832E3E749
:1011000000231D1CD2E7C0460000C8420C00054069
:101110000000FFFFFFFF0000F0B54546DE465746E2
:101120004E460400E0B583B01F000CAB150004CBA5
:1011300008001B78616001933F4B042123609046B7
:1011400000F0B6FC636899461F2B6CD81E07760F1B
:1011500029003A48794302F04BF9013885B26421FD
:10116000280002F06DF980B202F05AFD344982463F
:10117000404602F04BFD002852D10021404602F0CB
:101180003FFD4346002854D1524638002261E660B4
:10119000A360FBB29B4602F03EFD071C584602F0DE
:1011A0003FFD011C381C02F0E2FC8321C90502F05E
:1011B000F8FC02F057FD5B46C0B21B011843B300B8
:1011C0009E19204BB600F31858601D611E4B414616
:1011D0005046F51802F0E5FC02F044FD4B4680B2A3
:1011E000DB0724D5194B00042A68424013408022B3
:1011F0005201944665442B60124B2000F3181A6884
:10120000019B53401A0001231340114A944666443F
:10121000336003B0F0BCBB46B246A946A046F0BD61
:10122000074B9846B0E75E07B60F083690E7094BC4
:10123000DAE700239846A7E7B08901104059730701
:101240000000C842000005400C0005400000FFFF00
:1012500000100540FFFF0000436830B55A081F2BFF
:1012600021D8072111408A005218114992005418C0
:101270000121104D0B40AC46013BDB032468DB0B26
:10128000634423400C4CA44662441360C26893003C
:101290009B180A4A9B009A1812681140084A944603
:1012A0006344196030BD032111400831DBE7C046BB
:1012B0000C0005400000FFFF0C1005400000054039
:1012C00000100540F0B5C646040000B586B00CA875
:1012D0000078A3721B0462720343120213430DAD24
:1012E0002E786160E36034490E9B216023613349AD
:1012F000E0722672324804F03DFD06210700062008
:1013000000F0D6FB01230021062200932C4804F0B4
:1013100009FE80235B020293FB1CFA011B031343AB
:10132000284A052013400393274B0593274B04932A
:1013300001F0D2FE02F06FFC254902F01EFCEC2108
:10134000890502F017FC804602F08CFC85B2002370
:10135000002D0ED0280002F05EFC011C404602F079
:1013600006FC8721C90502F01CFC02F07BFCC3B21D
:101370001B022D041D430295114D3A0002AB0021C2
:10138000280004F029FE01222B68002013432B6063
:10139000002E01D0E06800028021094A490253680A
:1013A0000B42FCD110610021322001F017FC20001B
:1013B00006B080BCB846F0BDC4890110D0890110C8
:1013C00000002050FFFFFF9F001800200000067063
:1013D0000024F44A0A4B70B5802203600023050004
:1013E0000849037252024B681C0014401342FAD1A0
:1013F0000C613220002101F0F1FB280070BDC046D5
:10140000C48901100000205010B5024804F012FAFF
:10141000002010BDB467011070B504001500110064
:10142000034804F08FFAE36800205B19E36070BDA5
:10143000C86701100B0070B504000D000D3300D11A
:1014400070BD1F4804F07EFA002D2CD11D4804F019
:10145000F1F9606800281AD0002107F027FC00226B
:101460000021606807F058FC0021606807F030FC3C
:101470000021606807F01EFC0021606807F036FC60
:10148000606808F061F8011E12D1002363602068D3
:101490000028D5D0002107F009FC206808F054F896
:1014A00000232360CCE72900074804F04BFAD0E77B
:1014B000064804F047FA606807F07EFDE5E7C0469D
:1014C000DC670110F4670110046801101468011052
:1014D00010B53421012002F017FC041E01D02000B9
:1014E00010BD024804F0A6F9F9E7C04634680110BF
:1014F00070B504004068002500281AD0002107F0CC
:10150000D5FB00220021606807F006FC002160681E
:1015100007F0DEFB0021606807F0CCFB002160686B
:1015200007F0E4FB606808F00FF8051E0ED10023F9
:1015300063602068002807D0002107F0B7FB20680F
:1015400008F002F800232360280070BD29000D2553
:10155000034804F0F7F9606807F02EFD6D42E6E7F6
:1015600014680110F8B505000E00141E30D0118962
:1015700000290FD1200006F0E1FB2B69012B01D0DF
:101580000020F8BD2B7A032B01D83022AB54002366
:101590002B61F5E70269134804F0D4F901232869A7
:1015A00021891B1A9FB20A1CB9420FD829000831A1
:1015B00009180023200092B206F0EEFC2B691B18DC
:1015C0002B613000218907F053F8D3E71A1CEDE7AF
:1015D00001210548494204F0B5F92800FFF788FFCA
:1015E000CFE7C046506801100468011070B50500CF
:1015F0000C00161E47D1002939D0274804F01AF9EB
:10160000200029006C6007F051FB2000234907F0FF
:101610005FFB2000224907F04DFB200002222149F8
:1016200007F07AFB2000204907F060FB3023EB5CD9
:101630006C68012B01D0002070BD1C211B48EE609E
:1016400004F080F92900012314311C22200009F044
:10165000F7FF011EEFD0164804F074F90121154878
:10166000494204F06FF92800FFF742FFE4E712480F
:1016700004F0E0F8114804F0DDF82800FFF738FF27
:1016800006204042D8E70C4804F0D4F8310009485D
:1016900004F058F9F1E7C0468468011019140010ED
:1016A0006515001009140010351400109868011019
:1016B000B86801100468011070680110F467011027
:1016C00070B5040000292ED11E4804F0B3F86068FC
:1016D000002500281AD0002107F0E8FA0022002196
:1016E000606807F019FB0021606807F0F1FA00213B
:1016F000606807F0DFFA0021606807F0F7FA6068B9
:1017000007F022FF051E12D1002363602068002825
:1017100007D0002107F0CAFA206807F015FF002360
:101720002360280070BD084804F00CF9CFE72900B9
:101730000D25064804F006F9606807F03DFC6D428F
:10174000E2E7C046F4670110046801101468011054
:10175000302370B5C35C04000D00012B01D00020C4
:1017600070BD00231C21C3600B4804F0EBF821007E
:10177000012314311C22280009F062FF011EEED063
:10178000064804F0DFF801210548494204F0DAF880
:101790002000FFF7ADFEE3E798680110B86801107C
:1017A000046801101E4B70B50500186804300FF076
:1017B00023F91C4B01001C4A180004F0C3F82E202A
:1017C00007F0FAFC041E26D00021174A06F05EFE40
:1017D000002812D10121200006F0D2FE2860002846
:1017E00011D0290007F062FA2868104907F08CFA36
:1017F000302303220120EA5470BD0D480A4904F049
:10180000A1F80020F8E70B4804F014F8200007F0D6
:101810009BFE0020F0E7084804F00CF80020EBE7FE
:1018200010BC0020D468011092100000ED150010CB
:10183000106901102C690110F8680110D0231B06F3
:101840001B68974A9900F0B54E46894651585A424E
:1018500053412F2257464546DE465B429343984606
:10186000904BE0B59C4683B000270191E0440029ED
:1018700039D08D4B0F269B464246FB0808339B0010
:101880009C5801233D009A460837002C22D0310095
:101890002140264218D05B464A469A582B00EA401F
:1018A000203BDB171340524613420DD1072208009C
:1018B0002A40920090400200EB087C483C339B0099
:1018C0001A502800019B984724090135002C01D0AB
:1018D000BD42DCD3202FCFD103B0F0BCBB46B24613
:1018E000A946A046F0BD704B00200F229B46C608BB
:1018F0003300414608339B005B5801000830002B41
:1019000000D1B2E017001F40BC461A420FD04C462F
:101910005D460F002C59203FCC40FF172740012483
:10192000274204D16446614F3C36B600F4511E098B
:1019300000D19AE017003740324213D04C1CA44625
:101940005D464C462C5965460E00EC401F3EF6178E
:1019500026400124264205D1EE08544C3C363F0176
:10196000B60037511E0A00D17FE0170037403242DF
:1019700013D08C1CA4465D464C462C5965460E007F
:10198000EC401E3EF61726400124264205D1EE0803
:10199000464C3C363F02B60037511E0B65D017004F
:1019A000374032420DD0CC1CA4465D464C462C59E3
:1019B00065460E00EC401D3EF617264001242642E7
:1019C00057D01E0C51D014003440A44632420BD0E4
:1019D0004C46354E0F1D3659FE40B2460E00544659
:1019E0001C3EF60F26424BD01E0D3ED01400344054
:1019F000A44632420BD04C462B4E4F1D3659FE406A
:101A0000B2460E0054461B3EF60F264240D01E0E34
:101A10002BD014003440A446324212D04C46224E01
:101A20008F1D3659FE40B2460E0054461A3EF60F40
:101A3000264206D16446FE083C3627061B4CB600FB
:101A400037511B0FCF1D002B0FD04C465D462E5932
:101A50000124FE401939C9173140214205D1F90846
:101A6000124E3C311B0789008B51202800D03EE7E5
:101A700032E7EE080D4C3C363F03B6003751A0E785
:101A80006446FF083C37BE00084F2404F451ABE71E
:101A90006446FE083C362705044CB6003751B6E7CD
:101AA000A013002030410140FCCB00200040014049
:101AB000094A83009A1810B51468402254408032B5
:101AC0002240064CC000A44663441A60044B9C4666
:101AD0006044416010BDC04604C0014004D00140D4
:101AE00000400140074B8000C3181B68C9009200EA
:101AF0000A435A400C231340034A9446604403604F
:101B00007047C04604C0014004D001408000002955
:101B100005D0064B9C460223604403607047044B8B
:101B20009C46022360440360F8E7C04604E001409D
:101B300004F00140D0231B061B6830B50500584255
:101B400043412F205B4283430E48EC088446072024
:101B500028408000814020000B4D3C3063448000D1
:101B6000A40041511B19002A05D0802292019446FD
:101B70006344196030BDC0229201944663441960E9
:101B8000F8E7C0463041014000400140F8B5454605
:101B90009846D0231B06DE461C689B462B4B5746B7
:101BA0009A46A3004E469946E0B5534616004A466B
:101BB0009B5807000D00002B34D04346002B3FD02C
:101BC00053464A4641469950D0231B061C6863423F
:101BD0005C412F220720634293431D4A38409446BC
:101BE000FA081100800085403C311A48634489009E
:101BF00092000D509B18002E0ED080229201944628
:101C0000634401210D201D6000F074F9F0BCBB4657
:101C1000B246A946A046F8BDC0229201944663444C
:101C20001D60F3E74346002BD1D0534641460D20BB
:101C300099500022084900F0A1F95B461C68C6E7EC
:101C40000D20054900F094FABAE7C046A013002021
:101C500030410140004001403D180010D023F0B554
:101C6000C6461B0698461B680C4F9B001600FA5888
:101C700004000D0000B5104209D1290014430D20C5
:101C80003200FC5000F07AF980BCB846F0BD01F09B
:101C9000CBFA43461B689B00FA58EEE7FCCB0020CA
:101CA00010B504000D2000F063FAD0231B061B685A
:101CB00002499B005A58A2435A5010BDFCCB002049
:101CC0008000002905D0064B9C46402360440360F9
:101CD0007047044B9C46402360440360F8E7C046CD
:101CE00004E0014004F001400123D02283401206A9
:101CF00093629361094A83009A1811684022514007
:101D000080320A400649C0008C4663441A60054B85
:101D10009C460523604443607047C04604C00140B0
:101D200004D00140004001400FB400B5084883B022
:101D300003F080FD049B002B07D005A9180001913A
:101D400003F0BCFB034803F075FD012003F0CEFB5C
:101D5000406901103C850110EFF3108072B6034A10
:101D60001368002BFCD0BFF35F8F70472C0100D0AD
:101D7000BFF35F8F0022024B1A6080F31088704718
:101D80002C0100D070B5EFF3108C72B60D4D2B689E
:101D9000002BFCD0BFF35F8F0724CB08C618C05CB4
:101DA00001230C40A3401C000440034207D1184308
:101DB0003070BFF35F8F2C608CF3108870BD100003
:101DC000FFF7B2FF2C0100D0F8B54746CE46884653
:101DD00080B5EFF3108C72B6214D2C68002CFCD02E
:101DE000BFF35F8F9A422CD8D4080727055D0619E8
:101DF00001241740BC402C421FD0072101278946EF
:101E000009E0D408055D06194C4639001440A1408C
:101E10000C00294211D001329342F2D201204042FB
:101E2000BFF35F8F00220E4B1A608CF310880028DE
:101E30000FDBC0BCB946B046F8BD25431000357075
:101E4000EEE7BFF35F8F00232B608CF31088012037
:101E500040424346002BECD00898FFF765FFC04690
:101E60002C0100D030B5EFF3108C72B60A4C236809
:101E7000002BFCD0BFF35F8F072301220B409A4059
:101E8000CD08435D93434355BFF35F8F0023236029
:101E90008CF3108830BDC0462C0100D0044A107865
:101EA000431CDBB2172B00D9102313707047C046B8
:101EB000880400200021044B044ABFF35F8F02C353
:101EC0009342FAD17047C046000100D0800100D093
:101ED000054B064A1360064A136053609360D36053
:101EE00013615361936170478080808000E400E05B
:101EF00004E400E01F2318401E3B8340002905D066
:101F0000C021044A490053501360704780220149A0
:101F10008B50FAE700E100E001238340014A13609F
:101F20007047C04600E200E070B50D00EFF3108688
:101F300072B60F4A1368002BFCD0BFF35F8F0D4BB6
:101F400010309B6884001B590B4A934203D09D427A
:101F500001D001F069F9074B9B681D51BFF35F8FFA
:101F6000BFF35F8F0022024B1A6086F3108870BDAA
:101F7000240100D000ED00E0CD010010F0B557467F
:101F80004E46DE464546E0B585B006000091170096
:101F9000EFF3108B72B66A4A1368002BFCD0BFF3C4
:101FA0005F8F0025674B5D579A46002D00DAA9E048
:101FB0006B00654C01935B199B009846A146C14498
:101FC0004B4652469B7910361370604BB6009B68A7
:101FD00099590B1B2F2B33D95D4B994200D0ACE0A4
:101FE000019B42469C465B4B6544AD0063535A4B94
:101FF0000232A218043B9B1A1B05584A5B0D651957
:1020000013436B80564B0121AB80FF23AB71009BC8
:10201000EF71AB604B460B4319004C4B9B689951D9
:10202000BFF35F8FBFF35F8F0022454B1A608BF3C6
:10203000108805B0F0BCBB46B246A946A046F0BD2C
:1020400001200A008243D3798C46BB4231D84546F1
:10205000130044491B1B5B415943090D3D4B63531E
:102060003D4B02356519043B5B1B1B053B4D5B0D6E
:102070002B43AA464D466B800425AC465546E044AA
:10208000131F44441B1B1B055B0D1D434B469971DD
:1020900000999D8099604946DF71334B014313607D
:1020A000BBE75800C01880002018C179B9422FD969
:1020B00002000623D356002BF3DA02932B4B614622
:1020C0000393131D9A4604235B429C46E144504609
:1020D0004B461B1A1B055B0D9C46204B9571984681
:1020E0006346404603439380019B5A199200039B29
:1020F000A418A380029B1C4AA371009B2260E77175
:10210000A3608AE701F090F8002553465D574FE73A
:10211000908802934005131D9A46031561469C461C
:102120004046D444634604302018181AE0230005C2
:10213000400D1B0218430390C5E701F075F84FE707
:10214000240100D081CD00208C04002000ED00E0AF
:10215000CD01001000A1FFFFBC04002000E0FFFF44
:1021600001BDFFFFAAAA00000148804701BD000091
:10217000F0B5DE4657464E464546E0B50C0083B006
:10218000EFF3108872B6634A1368002BFCD0BFF3DC
:102190005F8F614B61499A68030010339F00D559E6
:1021A00000938D4243D0A54254D05D4EAA1B2F2AE6
:1021B0003DD85C4B9C461B689A4601231A00994601
:1021C0008240534613401F2201934B4602409340E6
:1021D0009A468022634650469850BFF35F8FEFF3D4
:1021E00005839B46002B37D0009B5B4501D001F057
:1021F0001BF82A004B469A439068844208D177E046
:102200004B005B189B00F3189868844236D01A0084
:10221000062151560029F3DA844255D0019B002B48
:1022200027D0C02251463F4B5200995019603A4B7B
:102230009B68DD51BFF35F8FBFF35F8F0022354B8B
:102240001A6088F3108803B0F0BCBB46B246A946BA
:10225000A046F0BD0D00EAE72A004B469A4390687D
:102260008442D5D106201056130000280ADA0D004A
:1022700032E0802351462B4AD150D8E70620185629
:10228000002822DB42001118890074188946A168D1
:102290009960E179D971062161569971002925DB90
:1022A000A488F11A640524154C440919E024090591
:1022B000490D24022143998013181B4A9B00117871
:1022C000F31899711070A9E713005946002914D129
:1022D000FF3191711549918013490A789A71144A16
:1022E0009B1B5B415A43120D0A7097E71149E2E7C5
:1022F0000620105613000028C4DA0F4A0F49D21ADC
:10230000083A5002400D014399800D4952080A4392
:10231000DA8083E7240100D000ED00E0CD01001059
:102320008C04002000E100E081CD002001BDFFFF12
:10233000AAAA000001BD0000C604002000F0FFFFB3
:1023400000F8FFFF10B58308040003202040FF249D
:10235000054AC0009446844081409B0063441A684B
:10236000A2430A431A6010BD00E400E070B50124E6
:102370000443EFF30581EFF3108C72B6214A136822
:10238000002BFCD0BFF35F8F1F4B05001F4AED1AD7
:102390006D416A43120D1E4D8900AE6852B27658E7
:1023A000A6421CD00621595691421CD012215956E2
:1023B000914222D01E215956914220D02A215956AD
:1023C0000324914210D0134B19781A708171BFF316
:1023D0005F8F00220B4B1A608CF3108870BDAB68C6
:1023E0000D4C5C50EFE700246100091989005B186F
:1023F000FF21997109499980E5E70124F4E7022456
:10240000F2E7C046240100D08C040020AAAA0000F4
:1024100000ED00E081CD0020CD01001001BDFFFFE7
:102420001F2110B5091A0248FFF71CFD10BDC04658
:1024300089CD002010B5084B084C82B001000093F4
:10244000002205232000FFF7BFFC002801DB1F232B
:10245000181A02B010BDC0465069011089CD002085
:1024600070B504000E001500FFF718FD01002000F4
:1024700000F006F8A680E580BFF35F8F70BDC04610
:10248000024B9C4661448900016070474000003463
:1024900070B5114C114DAC420FD2FF262368002BB2
:1024A0000CD0FFF7FBFC01002000FFF7E9FFA6803E
:1024B000BFF35F8F0834AC42F0D370BDFFF7EEFC82
:1024C00001002000FFF7DCFF2671BFF35F8F0834A7
:1024D000AC42E3D3F1E7C046E80A0020F00A00204E
:1024E00010B50400FFF7DAFC01002000FFF7C8FF79
:1024F000FF23A380BFF35F8F10BDC0460A4B19684E
:10250000EFF3108072B60A68002AFCD0BFF35F8F29
:102510001B68BFF35F8F00221A6080F3108840BFF2
:10252000002000217047C04620CD0020F0B5DE46D7
:1025300057464E464546E0B583B0EFF30582032388
:102540001340B54A990052580091904601229A4092
:10255000B24B93461A60B24B01932EE043469B88E0
:102560001BB2002B00DB99E043469B79002B00D087
:10257000DDE0434608241C5F002C00DA06E14346F8
:102580005A6963001B19DB00D3189D68DC686B1C5B
:1025900000D107E1A34B00999C4661449A6A0B69FC
:1025A000A81A9B1A984200D20D619E4800F0C0FB09
:1025B0008C4200DDEAE000D126E15B4699484363A6
:1025C000434608229B5E9946002BC7DB4246526970
:1025D0005B0092464B44DB009A4453469E68DF689A
:1025E00000F0A6FB8F42B9DC00D100E1002F00DA39
:1025F000E1E05246534654691B69019A934200D167
:10260000D4E0414652460820085E5288000421006A
:102610001043984704000D0023002B4300D1CAE06B
:10262000002D00DBE7E030003900001BA9415346D4
:102630009860D96000229A5E002A8FDB43465D696C
:1026400053009C18E4002C19A768E4688C4200DD54
:1026500084E702D1874200D980E7464632810836B6
:102660000DE08C4200D1D3E01E000023F25E002A70
:102670000ADB53009C18E4002C19A768E4689B1837
:10268000DB00EB188C42ECDD53461A804B4633805E
:1026900043469B881BB2002B00DA65E743461A6964
:1026A000EFF3108172B61368002BFCD0BFF35F8F7D
:1026B00043469E88012342465B42938036B21369AB
:1026C000BFF35F8F00221A6081F31088002E00DABA
:1026D0004AE743465D69083342469C467700BF1986
:1026E000FF00EF19BB68604698460823D15E92460A
:1026F000FC68002907DA0EE0A2424FD01800002340
:10270000C15E002906DB4B005B18DB00EB18DA68C2
:10271000A242F1DD524606800023FE5E3980002E83
:10272000DCDA904643469B79002B00D121E7002359
:1027300042469371434646460821595E08364B1C73
:1027400024D047468946556902E006004B1C18D044
:102750004B005B18DB00E8180A008C46E95E4388F2
:102760001BB2002BF1DA01235B42DC178360C460EB
:102770004A4503D031803B8903803A81E1464B1CB6
:10278000E6D14C46B846002C00DBF8E640BF03B06B
:10279000F0BCBB46B246A946A046F0BD9A68424589
:1027A000ACD9B7E7631C00D0F4E6FEE6200023694D
:1027B0009847002825D1534642461B881381126949
:1027C000EFF3108372B611680029FCD0BFF35F8F5E
:1027D0004246514652880A80424649465180126913
:1027E000BFF35F8F0021116083F31088B6E6864245
:1027F00000D8FBE6B2E60B4800F09AFA00196941EE
:1028000015E76568246807E7854200D8D5E6BDE787
:10281000874200D828E737E730BC00203C700540ED
:102820002D2500100040054070B52E4C2569002D67
:1028300004D00A212C48FFF723FE70BD2B4E032144
:10284000300000F06BFAE660FFF728FB284B03220C
:102850009C46D02322701B061B6801216370254B08
:102860006044A3600F2380002061022063806369BD
:102870004942A18019800231198647311D8358527F
:1028800018315A5275325C399952183201319952C5
:1028900018320131995218320131995208351832E3
:1028A0009D52023118329952183201319952183220
:1028B000013199521832013199521832013199522D
:1028C0001832013199520C4B0C49DC6001303562F1
:1028D000FFF72AFB01210320FFF70CFB084B1D60CB
:1028E000A7E7C046D404002020CD002000400540CA
:1028F00040000034FFFF100030BC00202D250010E8
:102900003860054000487047D4040020F8B51F0027
:1029100008AB1B7804001600002B08D100F010FA59
:1029200032003B00121A8B41002B00DA53E022697F
:10293000EFF3108072B61368002BFCD0BFF35F8FEB
:102940000223E15E63694A005218D2009B180029F5
:1029500037DB1A8862802269BFF35F8F002515601C
:1029600080F31088069A9E60DF601A61079A5A61A8
:102970005A8801325204520C101C002A1FD082B215
:102980005880080410432669EFF3108772B6326846
:10299000002AFCD0BFF35F8FA2881A80A180236930
:1029A000BFF35F8F00221A6087F310880B492378EA
:1029B0008C4601329A40E36863441A60F8BD0120F6
:1029C000DDE72369BFF35F8F00221A6080F3108870
:1029D00001204042F2E70020F0E7C0463C20000022
:1029E00070B501000469EFF3108C72B620680028FE
:1029F000FCD0BFF35F8F02200D5E4C696800401968
:102A0000C0002418002D37DB208848800869BFF3F8
:102A10005F8F002606608CF31088E360638804985B
:102A2000013320615B0405985B0CA26060611A1C95
:102A3000002B1FD093B22804628018430A69EFF379
:102A4000108C72B61368002BFCD0BFF35F8F8B889D
:102A500023808D800B69BFF35F8F00221A608CF397
:102A600010880B7801329A40CB6808498C46634441
:102A70001A6070BD0122DDE70B69BFF35F8F002292
:102A80001A608CF3108801204042F2E73C200000DD
:102A900010B543890A1493421ADD53009B1842690A
:102AA000DB00D3180469EFF3108C72B62268002A99
:102AB000FCD0BFF35F8F5A88090494B2090C8A4294
:102AC00008D00369BFF35F8F00221A608CF310886F
:102AD000002010BD8022120214435C800123026991
:102AE0008371BFF35F8F002111608CF3108804495C
:102AF00002788C469340C268012062441360E8E784
:102B00003C200000F0B504000D0006267642F717C1
:102B1000C64636196F4100B582B08F4214D811D025
:102B200000F00EF932003B00121A8B41002B17DC2B
:102B3000002B47D02000290000F040F902B080BCF3
:102B4000B846F0BD8642EBD90022002316001F00D4
:102B500000F0F6F832003B00121A8B41002BE7DD43
:102B600000F0EEF832003B00121A8B41002B0ADB1A
:102B700000230193154B3200009315483B00FFF7EB
:102B80002FFF0028D6DB00239C46B046114A124E88
:102B9000736A9F4204D8B16A8845CBD99F42C9D194
:102BA0001168EFF3108072B60B68002BFCD0BFF3F6
:102BB0005F8F1368BFF35F8F6146196080F31088E1
:102BC00020BFE5E7002AB5D0CAE7C046FD240010C3
:102BD000D404002020CD00200040054070B5040042
:102BE0000D0000F0ADF88023001969411B069942E1
:102BF00002D3012002494042FFF784FF70BDC04666
:102C0000FFFFFF7F70B5060000F09AF8FA2204007B
:102C10000D00002330000021920000F08BFF802384
:102C2000001969411B06994202D301200249404222
:102C3000FFF768FF70BDC046FFFFFF7FF0B5CE46CF
:102C4000474680B504000D0083B0EFF30587884642
:102C5000002F3ED12E4EA1463378F06804339B00FE
:102C6000816A1B58601A5B1A98420ED320BF29490B
:102C700000204B6AAB4203D38A6A0130944231D8B8
:102C800003B0C0BCB946B046F0BD00F059F8220010
:102C90002B00121A8B41002B2FDB1F4B22000093BD
:102CA00030002B000197FFF79BFE011E25DD194B1D
:102CB0005A6AAA421BD220BF3000FFF7E9FE154A2C
:102CC0000020536A4345DBD3926A01309145D7D93E
:102CD00008E0104900204B6AAB42D1D38A6A013028
:102CE000A242CDD25B1B5A1E9341D8B2C8E79B6A61
:102CF0009C42E1D9AA42DFD1DDE7064A0020536AAF
:102D00004345BDD3926A01209145B9D9EAE7C0464F
:102D1000D404002000400540FD24001010B5024AF4
:102D20000248FFF72FF810BD6C690110B0130020A6
:102D30000300416A0A00986A596A8A42FAD17047C8
:102D4000034B596A0A00986A596A9142FAD170474E
:102D50000040054070B504000D00174A536A190081
:102D6000966A536A8B42FAD13000190024184D41FB
:102D7000AB4216D813D0104A2B00526A954203D9A1
:102D80000D494A6A9A42FCD39A4207D10A4A02E0A4
:102D9000516A994202D1916AA142F9D370BDA6420B
:102DA000E9D9054B5B6A1C005A1CEFD001230124B2
:102DB0006442E5175B42E3E700400540064A536A78
:102DC0009942FCD807D1044B02E05A6A914202D1E1
:102DD0009A6A8242F9D3704700400540F8B5040072
:102DE00006200D0000F078F9002844D0374B384910
:102DF000E3185A1E93418022120494465B429B0DB5
:102E0000344A9B0563441360334A136018000A6810
:102E10009043FBD12D4B314AE31859424B4180215D
:102E20005B0049000620995200F056F92900C000C5
:102E300000F006FB0130C3091ED140270122626267
:102E4000A362266BF30722D4E36A254B0620E5181C
:102E500000232B60266300F03FF93900800000F06A
:102E6000EFFA7023E26A5A400E3313402B601D4B79
:102E700023630323A364F8BD1B4A93421ED9002396
:102E80001A4A1B4F6262A362266BF307DCD5194B0B
:102E9000144AE3181A60656AA36A0620AD01ED18AA
:102EA00000F01AF9144900F0CBFAAD020100280035
:102EB00000F0C6FA0021FFF74DFFC5E74006800E7F
:102EC0009F011A003F180300B9E7C0460080FCBF0D
:102ED00008C0004000E0004000F0004058CD002055
:102EE0002C10000001030000FEFF0000FFFF0000A7
:102EF000C0FF3F00303000004E0E0000F8B5DE4647
:102F00004E4657464546E0B58B4605000A991800DF
:102F1000160000F095FA0A9B6C001F02324B6419F0
:102F20009C46A4006444636881469F4200D9676060
:102F30002B1FDBB29846012B30D9C02380229B0186
:102F4000E31812011A60294BAD0059599A4600291D
:102F50001BD17301E026226853401E408023424665
:102F60005B01E3181E60012A30D9802380229B0177
:102F7000E31812011A6053464A4667605A51F0BC82
:102F8000BB46B246A946A046F8BD586900F058FABB
:102F9000013043001B18033BFDD2DAE75B46012BEF
:102FA000CBD1C02303229B01E3181A60023AA36825
:102FB0001A42FCD07301E0262268AD0053401E4047
:102FC00080230A4A5B019246E3181E605A46216834
:102FD000514003220A401A6001225B469A40A368CE
:102FE0001A42FCD0C1E7C04600800040B813002060
:102FF000F0B546464F46D646C0B51F00344B440098
:103000009C462418A4006444636888461600FF2B7D
:1030100002D880235B006360031FDBB29A46012B5A
:1030200030D9C02380229B01E31812011A60294B7A
:1030300085005959994600291BD17301E026226861
:1030400053401E40802352465B01E3181E60012A54
:1030500030D9802380229B01E31812011A6080235B
:103060005B0063604B465F51E0BCBA46B146A84680
:10307000F0BD586900F0E4F9013043001B18033B30
:10308000FDD2DAE74346012BCBD1C02303229B01BB
:10309000E3181A60023AA3681A42FCD07301E026D2
:1030A0002268850053401E4080230A4A5B019146F6
:1030B000E3181E6042462168514003220A401A600C
:1030C000012342469340A2681342FCD0C1E7C046A8
:1030D00000800040B8130020014B8000C0587047AA
:1030E000B8130020F8B5040021481E0017000D0099
:1030F00000F0A6F90100380000F0A2F9069B3604A2
:103100001B031E432368002B20DB1A4B1A49E318CC
:103110005A1E93418022920194465B421B0B174A30
:103120001B0363441360164A13601F000A68974329
:10313000FBD1144B2560E2182123A06013602368A3
:10314000002BFCDA0823E6601360F8BD3F232268F9
:103150001340AB42D9D1A3681B051B0D8342D4D1C8
:10316000EE22E368D2021340B342CED1EDE7C0466F
:10317000001BB7000040FDBF08C0004000E0004059
:1031800000F00040043000008023024A9B000B4303
:10319000D362704700800540142310B501001888E1
:1031A00004331B88984710BD162310B501001888FA
:1031B00002331B88984710BDF8B54746CE4680B508
:1031C0000F1E19D01423994604330400002501264C
:1031D00098464B461888434621681B88984701C487
:1031E000431E9841013540420640AF42F1D13000C4
:1031F000C0BCB946B046F8BD0126F8E7AA23064A86
:103200001B0113602F230549D360054B19605368D8
:10321000002BFCDA7047C0460040024000B0FA00C4
:10322000006002407047C04610B50148FEF77CFDC3
:103230009069011070B5074D074EB54209D20024C0
:10324000013E761BB60808CD984723000134B342EF
:10325000F9D170BD78660110B4660110054B064ABD
:1032600006491A60064A074B1A6010000B6898431B
:10327000FBD1704700E00040BFCDFBFE08C000401E
:10328000FE7F3C0000F00040044BDB6C002B03D1C0
:103290008022034BD2021A607047C04600001150D2
:1032A0004C201150044A054B1A60054A1368DB0193
:1032B0008033FBD17047C046FFFFFF0100F00040A4
:1032C00008C000404022034B9A675A671A67DA66C3
:1032D0007047C04600F0014010B5FEF7EBFD10BD91
:1032E00070B5044D044CA968C022200000F032FDE6
:1032F000AC6070BD00ED00E000000020002310B5C0
:10330000294C82B0A367FFF779FF0122274B1A608F
:10331000636C012BFCD10322254B1A60224A936B6C
:10332000012BFCD1013300930121224A22480433AE
:10333000FFF7D8FE052301210093204A2048FFF71C
:10334000D1FE0022022104201E4BFFF751FE002275
:10335000012105201C4BFFF74BFE00220021072016
:103360001A4BFFF745FE002200210820174BFFF7FC
:103370003FFE8023DB000093002200210920134B35
:10338000FFF7BCFD0022104B00210620FFF730FEA6
:103390000420FFF7A1FE0E4900F052F801000020C2
:1033A000FFF7F2FE02B010BD008000403CB00040CC
:1033B00030B00040002F685900800240008C8647E2
:1033C00000C00240001BB70040597307006CDC02CC
:1033D00040420F0001480421014B1847F00400202F
:1033E000B9310010014B9B6818470000F004002021
:1033F000124A936F9B0815D29066D166002905D0BA
:10340000FFE7FFE7FFE7516F106F704704B58021BA
:103410000906C2175140002800D0C84313F004F930
:10342000002104BDF0B5146E556E576F166FFFF78F
:10343000E3FF1466556657671667F0BD000000D0BD
:10344000114A936F9B0813D210665166002905D06C
:10345000FFE7FFE7FFE7516F106F704704B50028E3
:1034600001D00020C04313F0DFF8002104BDC046A6
:10347000F0B5146E556E576F166FFFF7E5FF1466C3
:10348000556657671667F0BD000000D094464A4A5B
:10349000926F9208624601D228E0C046F0B5464ECF
:1034A000346E756E776F366F00F020F89446424A9E
:1034B00014665566576716676246F0BD94463E4AE5
:1034C000926F9208624601D254E0C046F0B53A4E7F
:1034D000346E756E776F366F00F04CF89446364A4E
:1034E00014665566576716676246F0BD002B24DBED
:1034F00011D000293EDA00B5C943404200D1013164
:1035000000F038F8C943404200D10131DB43524258
:1035100000D1013300BD002AEBD1002801D10029E0
:1035200005D00020C90FC90701D1C043410800B52B
:1035300013F06AF80022002300BD00B500290ADB61
:10354000DB43524200D1013300F014F8C94340423A
:1035500000D1013100BDC943404200D10131DB43FC
:10356000524200D1013300F005F8DB43524200D152
:10357000013300BD002923D1002B18D1002A0CD023
:10358000BC460D4F38667A6600210023FFE7FFE74F
:10359000FFE77A6F386F67467047002801D0074809
:1035A000010000B513F030F80022002300BD020036
:1035B0000B00002000217047000000D0FFFFFFFF3C
:1035C000002B00D0BFE0130C28D1002AE7D080B434
:1035D000114F39667A66FFE7FFE730B4040C7B6F62
:1035E000396F1B0423433B667A66FFE7FFE7FFE77B
:1035F000C04684B27B6F3D6F1B0423433B667A66F3
:10360000FFE7FFE7C04600232C042D0C7A6F386FCC
:1036100000196941B0BC7047000000D0F0B5944675
:103620000025140E01D112020835140F01D1120128
:103630000435940F01D192000235D40F01D152000C
:103640000135D40B0134254F7C66254C3C660E0CAD
:1036500093B2FFE7FFE7FFE73C6F6643360C770363
:10366000BE467343DF0B5B04C01AB941130C7343AE
:10367000DB18C91ACE086643360CB64493B27343BE
:103680001F0F1B01C01AB941130C73431F0B1B05FD
:10369000C01AB941860D8F023E436643360C092D90
:1036A00024DB520A7243801A7703460A6643360CBB
:1036B00016235B1BDE40DF40BF1964466643821B56
:1036C0007046043506330100D940A840C01900D324
:1036D0000131A24206D20023F0BD0000000000D05C
:1036E000FFFFFFFF121B0130F3D3F1E709277F1B18
:1036F000FE406446A2B27243801A00D20139220C05
:103700007243130C1204821A99410B00704604355F
:1037100013370100F940A840801900D30131002B74
:1037200002D1A2420AD2F0BD013000D30131121BF6
:10373000FAD2013BF8D1A24200D2F0BD013000D351
:103740000131121BF7E7F0B51C0C00D080E00CB47F
:1037500000251C0A04D11B02160E33431202083541
:103760001C0B04D11B01160F3343120104359C0BB3
:1037700004D19B00960F334392000235DC0B02D13B
:1037800092185B4101351C00971864410134464F83
:103790007C66464C3C660E0CFFE7FFE7FFE7C04641
:1037A0003C6F6643360C7703BE4697B27743C01B27
:1037B00000D20139C01B00D201399FB27743C91B27
:1037C000C91B170C77437E04FF0B801BB941CE0841
:1037D0006643360C0C2D33DBB644120B1F053A43FF
:1037E0001B0B97B27743C01B00D201399FB27743BE
:1037F000C91B170C77433E043F0C801BB941860D53
:103800008F023E43664329277F1BFE400C3D7746CF
:10381000AF40BF1930BCA2B2ABB272437343801A3F
:103820009941220C7243130C1204801A9941020030
:103830000B000137001BA941F9D2781E0021F0BD11
:103840000C277F1BFE4077467F0BAF40FF19E0E758
:1038500000245D1C07D0144F7D663966FFE7FFE743
:10386000FFE7FFE73C6F95B29EB265436643401B9E
:10387000B141150C1E0C6543664336042F0C3E43C4
:103880002D04401BB141994204D202000B002000DC
:103890000021F0BD01D19042F7D3801A9941013443
:1038A0009942F2D3F6E70000000000D0FFFFFFFFCF
:1038B00048404140484018B4134B5B68019308BD31
:1038C00018B4114B1B68019308BD94460F4A926FC0
:1038D000920805D2624618B40B4BDB68019308BD11
:1038E0000A4AF0B5146E556E576F166F6246FFF7B1
:1038F000F2FF064A1466556657671667F0BD18B49E
:10390000014B9B68019308BDC00C0020000000D053
:10391000FFB550404240504059404B40594000E0B4
:10392000FFB5154F4C00640D03D0BC4204D10C030D
:1039300014D80020090D09055C00640D03D0BC42B9
:1039400004D11C030AD800221B0D1B0501264B4085
:1039500009D44B4003D58B4200D18242FFBD99422E
:10396000FCD19042FFBD0B43DB1803431343F5D05A
:10397000C9434918FFBD0000FF07000000B5FFF76D
:10398000CFFF804100BDC04600B5FFF7C1FF01D9A0
:10399000002000BD012000BD00B5FFF7B9FF804148
:1039A00000BD012040054A00121804D85A00121820
:1039B00001D8002070470120704700000021002836
:1039C00005D17047C1174840401AFAD0C90713B54E
:1039D000064B1B6898470CBC441CA2401005120BF8
:1039E0000349091B09051943114310BD1CCC0020D4
:1039F0001F04000010B54C00620D8023D218DB00BC
:103A0000D21A5B057E2A10DD9E3A13DACC17090321
:103A1000490819435242D140640001341532202A2A
:103A200005DAD0400843604310BD002010BD0846B1
:103A3000604310BDC80FC018013810BD18B4024B48
:103A40005B6A019308BD0000C00C002018B4024B53
:103A5000DB6F019308BD0000C00C002010B50148C9
:103A6000FEF762F99C690110132370B51D78012DD2
:103A700019D014DD1D48FFF797FB06001C48FFF71F
:103A800093FB1C4C80223100200000F063F9022DD2
:103A900006D01948FFF780FB184B186070BD154C15
:103AA000174BA364F5E7174B124C23606360A360C8
:103AB000E36023616361A361E36123626362A362E4
:103AC000E36223636363A363E36323646364A364C4
:103AD000E36423656365A365E36523666366A366A4
:103AE000E36623676367A367E367D9E7534400008E
:103AF00053460000C00C00204C3300001CCC0020BA
:103B0000093B00105D3A001007B5604601880A0ABB
:103B10000230DF2AFAD1C9B2820804D30288408871
:103B20000004104300E00068014A5050039007BDB4
:103B3000C00C002051434343C9188C46110C83B27A
:103B40004B4310B4040C614392B280B250436243C1
:103B50001C041B0C001910BC59411304120CC01892
:103B600051416144704700004840414048400E4B7D
:103B70005B6818470C4B1B6818470C4A936F9B08EF
:103B800002D2094BDB681847F0B5146E556E576FBB
:103B9000166FFFF7F6FF054A1466556657671667F6
:103BA000F0BD014B9B68184720CC0020000000D0DE
:103BB00007B548404140484001E0C04607B54200D3
:103BC000120E03D0FF2A03D1420218D8C00DC0053F
:103BD0004A00120E03D0FF2A03D14A020FD8C90DA2
:103BE000C9050122414005D4414001D5814207BDAC
:103BF000884207BD0143491801D0C043001807BDE2
:103C000000B5FFF7DBFF804100BDC04600B5FFF700
:103C1000CFFF804100BD491A002807D108467047F0
:103C2000C10FC90700D54042002817D0F44603B49D
:103C30000B4B1B68984706BC81409E384042803140
:103C400007D20B0607D04900490AC00510430843B4
:103C500060470130F8E7490A8902F5E7704700003C
:103C60001CCC0020014B5B6A1847000020CC0020D0
:103C7000014BDB6F1847000020CC002010B5014835
:103C8000FEF752F850670110132310B510481C7846
:103C9000FFF78AFA0100012C0AD003DD80220D48CB
:103CA00000F058F80C48FFF777FA0C4B186010BD7D
:103CB000084C5422200000F04DF8220008498032C0
:103CC0002368002B00D1216004349442F8D1E9E745
:103CD0005346000020CC00204C3300001CCC0020B8
:103CE0007D3C001010B5040011F012FF002804D034
:103CF000034B04199C4200D810BD0248FEF714F88B
:103D000000000420B469011070B505000C0011F02A
:103D10009FFE6C43002804D0034B04199C4200D83A
:103D200070BD0248FEF700F800000420B4690110DD
:103D300010B511F0F7FE10BD01480421014B1847E2
:103D400000050020B9310010014B1B681847000026
:103D500000050020014B5B681847000000050020AB
:103D60009A4200D2885470477047C046F8B557460B
:103D7000DE464E464546E0B599460A9B07009A4600
:103D80000D9B884693460B9C9B073BD10C9B9C420A
:103D90003DD21E1B0B9415000C005E442A004B46BE
:103DA000013521002020B847B542F7D1A0460B9C31
:103DB000002C20D0454636195346321B013C185D75
:103DC00029004B46B847002CF6D12B003500984609
:103DD0000D9B9B070FD55B46EC1A0C9BA3420AD99F
:103DE000464698462A004B46310020200134B84709
:103DF00001354445F6D32800F0BCBB46B246A9467F
:103E0000A046F8BD16001500002CD3D1E0E716003F
:103E1000002CCFD11500EEE7F0B54F464646D6460A
:103E2000C0B584B098460EAB1B7894469946129B59
:103E30000D9C109F119E9A0725D4002E65D1BC427F
:103E400021D201221A409246202C00D1E9E00C9A9E
:103E5000551E302202E0202C00D17BE001342A558F
:103E6000A742F8D85246002A0DD0B4420BD20C9A81
:103E7000551E3022202C02D171E0202C2DD001348F
:103E80002A55B442F9D1DA063CD55A052ED4002C75
:103E900028D10F9A102A00D1B6E0022A00D1BCE046
:103EA00030220C9C227001244A46002A65D15A0710
:103EB00000D499E02B220C9D2A55013403930C9BCE
:103EC00062460093029643460194FFF74FFF04B009
:103ED000E0BCBA46B146A846F0BD2024DA06EDD5CE
:103EE0005A0503D4A74266D0B44264D00F9A102A70
:103EF00071D0022A57D0202CE0D022000134302586
:103F00000C9FBD54202CD9D0CEE7012215001D40B6
:103F1000AA461A4236D04A46002A4AD10C321A42E0
:103F200047D1BC42A1D2202C91D1202E17D82024D9
:103F3000DA06C3D55A051BD4202F01D0202ED5D1A7
:103F40001F220F9D102D6FD0022DD8D162250C9FFE
:103F5000BD54D0E75246002A79D0202EBDD9202466
:103F6000DA06ABD55A0503D4202FE9D0202EE7D0AE
:103F70000F9A102AA2D12024A0E72D220C9D2A55A9
:103F800001349BE7BC4200D37DE7202C00D05EE7E4
:103F9000DA06F0D55A05EED4202F62D0202EEAD1D1
:103FA00034001F22CDE7202C00D187E72200013406
:103FB000CCE7013EB5E7621E012CC2D10F9A102A50
:103FC00000D06AE79A063BD558220C9C2270283A0A
:103FD0006270022468E79A060ED4202CCBD0782297
:103FE0000C9D2A55013486E71A0700D466E7202283
:103FF0000C9D2A55013461E7202CBCD058250C9A21
:1040000012191570013476E79A0608D558220C9CCF
:10401000227030226270022446E76032F7E778228D
:10402000F5E7002A83D1B3E7A21E013C9D0603D425
:1040300078250C9FBD5460E758250C9FBD545CE764
:1040400078220C9C2270483A627002242CE7DA062F
:1040500000D433E75A058BD4202F00D044E71F2229
:104060006FE73C001F226CE710B5002800D110BD9F
:1040700001F094FBFBE7C0460B0010B5002802D00E
:1040800049681B68984710BDF0B557464E464546EF
:10409000DE46E0B599B08246894690460893229A5A
:1040A000239B10001900FFF77CFC002800D0CDE016
:1040B000229823990122D94B5242FFF76DFC002828
:1040C00000D0C3E0229823990122D54B5242FFF73A
:1040D00055FC002800D0B9E0229823990022002343
:1040E000FFF74CFC002800D0F1E1229E239F8023A3
:1040F000269ADB001A400D92269A1A4201D1062315
:1041000024938023269A1B011A403B00934609966C
:10411000334300D0B3E0002A00D0C2E100230024E2
:104120000A930B94002304250993259B0024AB429A
:1041300000D95C1B0223269A1A400C92269A13423D
:1041400003D06B426B415B421C40099B002B07D0A4
:104150000A9A0B9B30003900FFF7B7FB06000F00EF
:104160002298239900220023FFF708FC002803D09F
:10417000802109067B181F00269AAA4B00960197FA
:104180001340089E0493249B0394029342463300F9
:104190004946504600F0AAF90400002D67D02020BF
:1041A000269A4946024013005A4253415B42621C20
:1041B00018400A92330022004530D047099A6F1EFA
:1041C000D317D4185C40D30F9B46002501E0202D67
:1041D00013D008AA94461F23200063440A21013506
:1041E0005E19FFF72DF93031317020000A21FFF7F9
:1041F00027F926000400092EE9D805230693002399
:1042000004930A3303935B46089E029310AB0A9A09
:10421000009349463300504605970195FFF7FCFD92
:104220000C9A0400002A22D04246851A259AAA42F6
:104230001DD9B04657461600220043464946202065
:104240000135B8470134AE42F6D810E0269B42460D
:104250000493259B49460393249B50460293229B3B
:10426000239C00930194089B00F040F90400200077
:1042700019B0F0BCBB46B246A946A046F0BD6A4B99
:1042800078009C46400D6044FFF79CFB674A684BF2
:10429000FFF735FB674A684BFFF712FB674A3B03A2
:1042A0001B0B1A4304000D0009981100644B0022F7
:1042B000FFF701FB634A644BFFF721FB02000B0091
:1042C00020002900FFF7FCFAFFF794FB0990FFF7A5
:1042D00079FB5E4A5E4B04000D00FFF710FB0022E5
:1042E0005C4BFFF7EDFAFFF785FB5B4A5B4B290060
:1042F0000C902000FFF703FB04000C980D00FFF763
:1043000061FB574A574BFFF7FAFA02000B002000F7
:104310002900FFF7D0FA04000D0002000B000A94F8
:104320000B95FFF7ECFA04000D000A980B990200B8
:104330000B00FFF7C5FA00220E900F914A4B2000A8
:104340002900FFF7C2FA0022484BFFF7B9FA020032
:104350000B0020002900FFF7B8FA0022444BFFF7BA
:10436000AFFA02000B0020002900FFF7AEFA0A9A0C
:104370000B9B0D0080210400C9050020FFF79BFA6C
:1043800002000B0020002900FFF79AFA02000B0040
:104390000E980F99FFF799FA0022284BFFF790FA31
:1043A000344B0C9C9C46644423050022FFF7A7FA7B
:1043B00004000D0002000B00300039000A940B9538
:1043C000FFF7DCFA00285DD123002A00C6250999F1
:1043D00063318D42AD4159466D420435002900D10B
:1043E000A3E6134363D030003900234A234BFFF781
:1043F000CBFA002807D0002230003900204BFFF70D
:10440000BDFA002853D1249B002B00D18DE60D9BD3
:104410005A1E9341249AD31A249386E6FFFFEF7F16
:10442000FFFFEFFFFFF7FFFF01FCFFFFFB799F504E
:104430001344D33FB3C8608B288AC63F0000F03FC7
:104440000000F83F61436F63A787D23F71A37909EA
:104450004F930A400000E03F1655B5BBB16B0240D8
:10446000EF39FAFE422EE63F00002C4000002440C7
:1044700000001840FF0300002D431CEBE2361A3FFA
:1044800080842E41099B0022013B09932000164B9A
:104490002900FFF71AFA0A00010003000A910B92A3
:1044A00094E7002300240A930B9400230993249A91
:1044B000099B9A4214DDD31A013B24938023269A48
:1044C000DB001A4300230025269209932DE6802263
:1044D00012069446229B1E00239B63441F0006E69F
:1044E00000232493EAE7C04600002440F0B5454687
:1044F000DE464E465746E0B595B08B469046994607
:104500001E9A1F9B0A9019001000209DFFF749FA80
:10451000002800D0B0E11E981F990122C74B5242DB
:10452000FFF72CFA002800D037E11E981F990122CE
:10453000C34B5242FFF730FA002800D0A7E01E9884
:104540001F990022BF4BFFF727FA002800D088E010
:104550001E981F990022BC4BFFF710FA002800D0CC
:104560007FE01E981F9900220023FFF707FA00281A
:1045700000D0FAE000230B938023229C229ADB00D8
:104580001C401A4200D102E1092D00D87CE106A9A5
:104590008C462C00172200233021093C6244013351
:1045A000D154EF1A202B00D132E1A342F7D10022DF
:1045B000A44B069207931E981F99FFF71BFA05005C
:1045C000FFF700FA02000B001E981F99FFF773F91E
:1045D000069A079BFFF793F908900991FFF72EFAC7
:1045E0000600FFF7EBF902000B0008980999FFF7A6
:1045F00062F90022954B08900991FFF7CDF9002848
:1046000000D1D2E001363000FFF7D8F9069A079BB7
:10461000FFF7BAF9002801D000260135AA46002F7D
:1046200000D098E02800FFF7CDF902000B001E989B
:104630001F99FFF740F9854B002206000F00FFF796
:104640009DF90CAB9A46002845D100223000390074
:104650007E4BFFF7A1F900283DD1EB073BD5013593
:1046600039E0229B42460493219B594603930A98C2
:104670001E9B1F9C0295009301944B46FFF704FD7F
:1046800015B0F0BCBB46B246A946A046F0BD229B81
:104690005B0767D403226E4B229901920391219903
:1046A0000291009342464B4659460A98FFF75EFB3B
:1046B000E6E706AA94461723280063440A2101343A
:1046C0001E19FEF795FE3031280031700A21FEF7E1
:1046D0008FFE051E76D0202CEBD10323229A1340A7
:1046E000012B1DD1219B002B1AD00B9B002B00D03E
:1046F000BBE0229A0C33134200D0B6E0219BA342C8
:1047000000D887E006AB9C4617223023624404E0C1
:104710002199013413558C4259D0202CF8D12024F2
:10472000229B01940393219B02935346B9E706AA67
:10473000944617230A216344300001341D19FEF703
:104740007FFE3031297030000A21013FFEF778FEEC
:10475000092E46D90600202CE9D155460CAB202461
:104760009A46B8E704223B4B96E71E9A1F9B00200F
:104770000021FFF7A0F801230B938023229C229AAB
:10478000DB001E901F911C401A4200D0FCE6002264
:10479000314B0627069207930DE7229B0393219B3B
:1047A0000293042301932D4B7BE70022089809997B
:1047B000264BFFF7E3F8002800D02FE7002E4FD15B
:1047C00001362BE70323229A1340012B66D0202CBD
:1047D000A6D00B9B002B1FD02D235246135501341E
:1047E0009EE75546202CB9D030233A19002F08D027
:1047F000172006A9013409180B55202CAED094427D
:10480000F6D10CAB9A462E2352461355013462E77B
:104810002024CCE6202C83D0229B5B0708D4229B4B
:104820001B0700D47CE7202352461355013477E759
:104830002B2352461355013472E7C046FFFFEFFFAA
:10484000FFFFEF7F65CDCD4165CDCDC10000E03FDD
:10485000146A01100C6A011080842E411C6A011038
:10486000F30700D4DAE60136D8E6219B013B219319
:10487000A34200D946E7AAE7229B0393219B029318
:1048800003230193074B0CE7074BEA009B185C6876
:104890001B682F000693079400248CE6219B002BB5
:1048A00095D022E7186A0110E88B0110F0B5574641
:1048B000DE464E464546E0B5A5B01F002E9B91460C
:1048C0000D93CA4ACA4B82468B461A60002900D112
:1048D00029E2002338789846002800D12BE2C54B06
:1048E00044460C93C44B55464E460E930AE0631C57
:1048F0009846220033005946A84744463878002895
:1049000000D187E001372528F1D108239A46043BDE
:104910009946023B9846013B00229C460B9438780E
:10492000791C0300203BDBB2102B03D80C9C9B00AE
:10493000E3589F460300303B0B9C0B92092B3AD95E
:10494000002398462A2800D1DDE000239A462E282D
:104950004BD00300683BDBB2122B1ED80E9A9B0093
:10496000D3589F4663460F001A43D8E743460F00CB
:104970001A43D4E74B460F001A43D0E710230F0029
:104980001A43CCE753460F001A43C8E780235B0065
:104990000B9A78781A430B9201310F0067284FD891
:1049A0002428A4D90300253BDBB2422B9FD893498E
:1049B0009B00CB589F46002398460B9B47469C463E
:1049C00000E00131BB00DB195B001F180878303FA5
:1049D0000300303B092BF4D963460B930023B84600
:1049E0009A460F0001312E28B3D180200B9AC000C7
:1049F00002430B9230225242944678780B00844452
:104A00006246092A00D8AAE12A2800D1B9E10F009C
:104A100001319EE7A046AA46B146C84503D301230B
:104A20005B424B4498464B46424659460020D0478D
:104A3000200025B0F0BCBB46B246A946A046F0BD5A
:104A400001006939C9B20F2900D950E701238B4011
:104A50009C466B4B994663464A4613400F93624609
:104A60004B461A4200D068E10A2956D0072900D0E7
:104A70003DE70D9B02CB9846002900D092E10B9BAD
:104A800010211A008A43100011310843814680200A
:104A90001A00C0000240110003421CD114AB9C4616
:104AA0001F220F2362440D959C4615000F9B0B940B
:104AB00002E0202B0CD0110064460C40200037305F
:104AC000092C00D807380133E8540A090F29F0D817
:104AD0000B9C0D9D0F934B4608220693534605925F
:104AE00008320392002204930F9B029201931CABA5
:104AF00022000093594633002800FFF78DF9434602
:104B000004000D93FAE60D9B04CB9046002A79DB56
:104B100078780D930F00013117E70D9B02CB1493AA
:104B20000B789C4618005346002B00D134E1002836
:104B300015D05346013B013399460D940B9C894493
:104B40004A460B00A14601E0934203D05C78013352
:104B5000002CF9D14A465B1A0D9C0B920F938023CF
:104B6000DB0099460B9A13400D934B461A4204D032
:104B70000F9B534501D953460F93022399460B9A35
:104B800013400B934B46134200D1F5E16346002BD3
:104B900000D1D6E10D9B002B00D182E10B1BD14649
:104BA00031009A463B00A1442E005F464D4622004C
:104BB0009B46894609E04B463900541CB047534692
:104BC000185D002800D192E122009542F3D14B46B6
:104BD0005A46A946BB46350017001E004C460B9BA3
:104BE000002B00D0ADE1149B0D9387E6AD4800107B
:104BF00088220020488A01108C8A0110D88A01106E
:104C0000419000000B9A283802430B9242465242D0
:104C1000787890460F000D93013196E678786C28ED
:104C200000D15DE180230B9A5B001A430B920131A6
:104C3000B3E680239B00ABE67878682800D148E192
:104C400080230B9A01311A430B92A6E6672800D104
:104C5000B2E0472800D11AE1452800D11CE10B9AA7
:104C60000721049242460D9B0392073352468B4321
:104C7000190002920CC92800009201930D912200A4
:104C800033005946FFF700FA040037E6462800D102
:104C90008DE00B9A0721049242460D9B0392073345
:104CA00052468B43190002920CC9280000920193CE
:104CB0000D91220033005946FFF718FC04001DE651
:104CC000631C98462200330059462520A8474446D5
:104CD00014E60D9B04330F93631C99460B9B9A07B4
:104CE00000D40AE10D9B2200187859463300A847EA
:104CF00043464444012B00D86FE1B0462E00250006
:104D00004C46B9465F462200434601343900202014
:104D1000B047AC42F7D12C00BB4635004F46464663
:104D20000F9B0D93EAE5D64B38789A4600239846B8
:104D3000002800D0D3E500246FE66F2842D000D8C9
:104D4000FDE11023782800D19BE00B9A9A430B9247
:104D50000A239C46002314930A330F9338E05746E6
:104D60000B9AB900C919490001330F181878303F60
:104D7000010030390929F4D9BA460B921F00591C99
:104D8000E7E50D9BB87804CB0237D143C9170A4039
:104D900092460D93791CDCE5002800D1DFE6022362
:104DA0005B42C8E621200B9A0243914676E6202317
:104DB0000B9A1A430B926CE780230B9A1B011A4340
:104DC0000B924CE708239C460023149308330F935F
:104DD0000B9880230200DB001A40110002001842E9
:104DE00000D080E00C239A431000802302009B0037
:104DF0001A400B92184200D0F1E0802302005B00C1
:104E00001A4091460D9A04321492184200D0C3E21F
:104E1000430600D5D7E0030600D421E30D9B1B8891
:104E20000993002B00D02DE110339843002900D1C5
:104E300028E10023994643460593534604930F9B6C
:104E400006900393002302934B4601931CAB220070
:104E50000093594633002800FEF7DEFF0400C2E647
:104E6000582809D0622800D0E3E202239C460023A0
:104E7000149302330F93ABE720230B9A1A430B9240
:104E8000103B9C460023149310330F93A0E780231C
:104E90000B9A1B011A430B9220230B9A1A430B9275
:104EA000DDE60B1B9A460F9B99463B0037005E469A
:104EB0009B4622003B003100A84753460134185D51
:104EC0000028F6D14B460F935B46B3463E001F00C9
:104ED00085E6C0230B9AB8781A430B92F91C5CE55F
:104EE000C0239B00F6E70D239A4310007DE75B4645
:104EF0003500BB464E461F0071E64346012B66D97E
:104F0000631E434432002E001D003B00A2465F4654
:104F100091469B4622004B46013439002020B04781
:104F2000AC42F7D15B463500BB464E46A1465446DF
:104F30001F000D9B4A461878594633004444A84741
:104F4000EEE60F9BA146984500D84CE64444E41A8F
:104F5000B0462E0025004C46B9465F462200434627
:104F6000013439002020B047AC42F7D12C00BB46B9
:104F700035004F46464636E60F98804500D873E226
:104F80004346E218131A32002E001D003B009146E2
:104F90005F469B460F9122004B460134390020208A
:104FA000B047AC42F7D15B46BB461F0043460F9962
:104FB00001330F930B7835009C464E46604600281F
:104FC00000D0E7E50FE60D9B1B78099329E70D9BC1
:104FD0002200187859463300A8474C46A0E60D9A9F
:104FE000FA3BFF3B07329A430133994691444B46C3
:104FF0000D931368526815921A4306D110329043EC
:1050000000220992002900D083E06122810600D5A8
:105010004122D2B20A9214AA91460A9A00210A3A6F
:105020000B9242461792524618925A46B24609913E
:105030001E001F31149B4944BB4616941A95002448
:10504000674698468946159D19901B920AE03032B2
:10505000D2B24B4601341A55A8454CD0202C4CD026
:1050600006000D003A00002330002900FEF726FA62
:10507000D2B2092AEBD90B9B9C466244D2B2E8E734
:10508000693D00106123820600D54123DBB20A3B53
:105090000B93434614A91F228C4615935346624432
:1050A000B2460D9417974C468046A9461700099DB5
:1050B0000F9E169308E03033DBB201343B55B54206
:1050C0000ED3202C0CD0050031002800FEF7B8F9D3
:1050D000CBB20929EFD90B9A94466344DBB2ECE7D3
:1050E000159B40469846169B4D465646A1469A4605
:1050F0000D9C179F9FE6B742B0D9179B564698461E
:10510000189B5F469A461B9B09949B46169C1998D0
:105110001A9D43460593534604930F9B06900393B1
:1051200000230293099B01931CAB22000093594674
:1051300033002800FEF770FE0400FFF7DFFB1023AA
:105140000B9A9A430F92692800D091E10B99802322
:105150000A00DB001A4010000A00194203D0112196
:1051600018008A430F920F9A802311009B00194068
:105170008C461A425BD1802311005B00194089469E
:105180000D9904310B911A4200D0B2E013005B0676
:1051900000D4EDE00D9B1B781A00D90F0D91002B68
:1051A00000D1A3E0100014AA944642461F23159292
:1051B00052466344A846BA464D461494B14604008C
:1051C0001F00169201E0202D0FD020000A21FEF7CB
:1051D00037F901357E193031317020000A21FEF790
:1051E0002FF926000400092EEDD8159B4E46A9463E
:1051F00045469846169B57469A46149C0F9B069325
:1052000043460593534604930A2303930D9B02934D
:105210004B4601931CAB22000093594633002800F3
:10522000FEF7FAFD0B9B04000D93FFF767FB0722C7
:105230000D9B07339343013294469C4462460D9282
:105240000CCBD90F0B911100194300D19BE0D9175A
:105250001391129151401091139959401191109846
:105260001199129A139B801A99411090119114AAC6
:1052700094464246002315925246994616923200B1
:105280001F336344A8464E46BA4614941F00109C30
:10529000119D914601E0202E10D0200029000A2205
:1052A0000023FEF70BF9013630322B00BA550D0002
:1052B00022000400002BEED1092AECD8159B109493
:1052C0001195454698464B46169AB14657461E00DC
:1052D0009246149C0F9B06934346059353460493B2
:1052E0000A2303930B9B02934B461CE7002885D1AE
:1052F00059E70D9B1B68DA0F1100002B00D1A6E0C7
:10530000DA179818504014AA91461F2342464B447E
:10531000A8460D94169704006546B1461F001491E7
:10532000159201E0202D0FD020000A21FEF788F809
:1053300001357E193031317020000A21FEF780F8E6
:1053400026000400092EEDD8159BAC46454698462C
:10535000149B4E4619000D9C169F0F9B02910693BD
:1053600043460593534604930A230393634650E749
:1053700013001B066ED50D9B00229B5ED9175A1891
:105380004A4092B209E7002399460028A2D10022A0
:105390000023109211936AE70D9B1B689946002B1E
:1053A00003D110339843002938D16123820600D5F8
:1053B0004123DBB20A3B0D9343461693534614A98F
:1053C0001F228C4617932B0062444D46B24615941B
:1053D00018978046170099460B9C0F9E08E03033C3
:1053E000DBB201343B55B5420ED3202C0CD0050066
:1053F00031002800FEF724F8CBB20929EFD90D9A25
:1054000094466344DBB2ECE7169B40469846179BF4
:1054100056464D469A460B94189F159C4346059355
:10542000534604930F9B06900393002302930B9B18
:105430000BE50B9980230A00DB001A4010000A00DC
:10544000194200D08BE610239A430F928BE6002876
:1054500083D158E70D9B1B68D9175A184A409CE620
:105460000D9B1B680993DCE4030001330F93A5E552
:105470000B926DE40CB430B585B008AC08CC064D89
:105480000A000094010028000394FFF70FFA05B00A
:1054900030BC08BC02B01847613D001000B585B0B3
:1054A0000391012102900093034813004A4202A98C
:1054B000FFF7FCF905B000BD7940001010B5094AAE
:1054C0000300146884B0002C08D001220091064823
:1054D000524203A9A047012004B010BD00F0AAF970
:1054E0000020F9E7882200206940001000BEFDE797
:1054F000094A03001068002805D00849C3188B42E8
:1055000007D81360704706480449C31810608B42DF
:10551000F7D901204042F5E75C220020000004207A
:105520008CCD002010B5FFF7E1FFC04670B5FDF748
:1055300081FE074D074EB54209D20024013E761B7D
:10554000B60808CD984723000134B342F9D170BDA5
:10555000B4660110BC660110030010B5080011000C
:105560001B68984710BDC046F0B5C64600B5437DE0
:1055700007000D001600002B38D0002A2EDD002178
:105580006A1E90466A5C037D4C1C00200A2A0CD0DF
:10559000A64216D043461B5D21000D3B5A425341A3
:1055A0006A5CDBB24C1C0A2AF2D1002BF0D1884293
:1055B00017DB022110483B689847A64207D020001D
:1055C000E8E7864203DD311A3B6828189847AD1991
:1055D000013D2B780D3B5A4253413B7580BCB84688
:1055E000F0BD091A3B6828189847E2E703681100E4
:1055F00028009847F2E7C046388C0110F0B5C6463F
:105600000B6806000C0000B5802B06D05A1C2260E7
:10561000E418267180BCB846F0BD0F4B1D68002D04
:1056200016D00B1D98460D4F02E02D69002D0FD0AE
:105630002B68002BF9D03B68002B01D0AB42F4D192
:10564000280041462268FFF78FFF2D69002DEFD11A
:1056500001220023DBE7C046502200205822002010
:10566000F0B5DE4657464E464546E0B585B01700D4
:105670001C0006000D00FDF763FB0023314A1218E1
:105680004B41802109068B4202D301222E4B52420C
:105690002E4908008A4610F0D7FF01906B1C03D1F9
:1056A000300010F025FE0500002C26D0284B98462F
:1056B000284B1C68002C15D0002F21D1264F02E06A
:1056C0002469002C0ED02368002BF9D03B68002BF6
:1056D00001D09C42F4D120002A003100C047246947
:1056E000002CF0D1019B002B28D1280005B0F0BC84
:1056F000BB46B246A946A046F0BD184B9846D7E730
:10570000154B994602ABDF1D0A239B4602E0246934
:10571000002CE7D02368002BF9D04B461B68002BE8
:1057200001D0A342F3D12A0031002000C0475B46DC
:105730000122390020003B70C047E8E7504610F0D6
:105740005BFFD2E740420F00FFFFFF7FE80A002027
:105750006955001050220020582200205955001091
:105760000A4A1368002B05D10CE01A001B6910329D
:10577000002B07D09842F8D1002902D103691360A9
:10578000016170470029FCD01060FAE75022002028
:1057900010B500F0B1F9012010BDC046F0B5CE46FD
:1057A000474680B583B06B460600DD1D2870FDF7C7
:1057B000C7FA00231A4A12184B41802109068B426E
:1057C00002D30122174B524217490800884610F0B5
:1057D0003BFF164B81461C68002C14D0144F02E08E
:1057E0002469002C0FD02368002BF9D03B68002BD4
:1057F00001D09C42F4D1200001222900FFF7B4FE21
:105800002469002CEFD14B46002B05D1300003B0AA
:10581000C0BCB946B046F0BD404610F0EDFEF5E71D
:1058200040420F00FFFFFF7FE80A002050220020C7
:105830005822002070B5040010F05AFD0123010029
:10584000050001222000FFF70BFF084B1C68002C0D
:1058500006D06368002B05D098472469002CF8D146
:10586000280070BD2469002CF3D1F9E750220020F4
:10587000F0B5CE46474680B5A3B004000D00FDF755
:105880005FFA0023294A12184B41802109068B42F6
:1058900002D30122264B5242264F380010F0D4FE8C
:1058A00000230600019322002B00234801A9FFF7E3
:1058B000F5FD019B8046002B14D1204B1C68002C69
:1058C00006D06368002B0BD098472469002CF8D1D0
:1058D000002E25D1404623B0C0BCB946B046F0BD2D
:1058E0002469ECE7154B1D689946002D1CD0144C1B
:1058F00002E02D69002D0FD02B68002BF9D0236812
:10590000002B01D0AB42F4D12800019A02A9FFF785
:105910002BFE2D69002DEFD14B4601951C68CEE77B
:10592000380010F069FED5E70195D1E740420F003D
:10593000FFFFFF7FE80A0020FD55001050220020E5
:10594000582200200FB400B583B004A901C9019109
:10595000FFF78EFF03B008BC04B01847F0B500296C
:1059600015DD0E4B0D271A680D4B0E4CD3185D42FA
:105970006B41451820215B001E5F0478A64207D0CA
:1059800093691942FCD101301460A842F5D1F0BDF1
:1059900093691942FCD11760F2E7C0465CCD002044
:1059A0000080FCBF58CD0020204B70B504000D1EB8
:1059B0001E682ADD002010211D4B013C1A689369E6
:1059C000194214D1013093691942FCD11368235450
:1059D0008542F4D1002E08D050239363516B183BBD
:1059E0000B4014498C466244136028000CE0002EE2
:1059F00008D050239363516B183B0B400D498C46E4
:105A00006244136000280DD070BD002E0AD05022D1
:105A1000074B1B689A63596B183A0A4005498C4634
:105A200063441A6003204042EEE7C046A8130020FA
:105A30005CCD002034100000064B10B51B68002B15
:105A400006D00021044A12689163044A10689847FE
:105A500010BDC046A81300205CCD0020AC13002070
:105A60000822034B19688B691A42FCD17047C04663
:105A70005CCD0020F8B51A4F1A4B3A680500D318D0
:105A800058424341184E14331C003368002D02D095
:105A9000002B0FD0F8BD002BFCD000212000956317
:105AA000FCF728FA20001149FCF762FB104B356027
:105AB0001D60EFE70E4B200019600C493560FCF7C4
:105AC00033FA01212000FCF715FA50223B689A6353
:105AD000596B183A0A4007498C4663441A60D9E763
